:020000000C945E
:1000020069000C94AD000C9400000C9400000C9458
:1000120000000C9400000C9400000C9400000C945E
:1000220000000C9400000C9400000C9400000C944E
:1000320000000C9400000C9400000C9400000C943E
:1000420000000C9400000C9400000C9400000C942E
:1000520000001027E80364000A00010000100001FC
:1000620010000100430044004F4646004100420098
:100072004500256400200043570043435700010018
:100082002D4E414E00494E46000080C002006002E3
:100092006600020062026800040064026A00020054
:1000A20068026E0002006A02700002006C027200B6
:1000B20002006E02770003007002790004007302EE
:1000C2007C0001007702800002007B028C000000AD
:1000D200F894EE27ECBBF1E0FBBFEBBFE5BF8DE090
:1000E200A2E0BB27ED938A95E9F780E098E0A0E6CD
:1000F200ED930197E9F7EEE8F0E08591959100978D
:1001020061F0A591B59105901590BF01F0010590A0
:100112000D920197E1F7FB01F0CFEFE5EDBFE8E0CB
:10012200EEBFC0E6D2E00C94D2001A931A2FE12F50
:10013200E7B98BE18A95F1F7369ABED0A0E6B2E034
:10014200E1D0349BFECFB8D0A2E6B2E0DBD0349A45
:10015200E4B1F5B1199108950A921A92FA926A934A
:100162007A938A939A93AA93BA93EA93FA93EFB7FC
:10017200EA93C098C198A0D0A4E6B2E0C3D0A8E8A0
:10018200B3E10CD399D0E991EFBFF991E991B9911B
:10019200A9919991899179916991F9901990099010
:1001A2001895E29720E030E0D098D898A0E1CBD023
:1001B200E0E6E7B9E7E8E6B9B89AB99AE2E0E5BF5E
:1001C2007BD0A8E6B2E09ED077D0AAE6B2E09AD081
:1001D200A0E0ABDF8F0170D0ACE6B2E093D02F5F2E
:1001E2003F4F7ED2F90184D2AEE6B2E08BD078D214
:1001F200F8017ED2A4EFB1E0D1D20632E2E01E07CE
:1002020034F4C09AC19858D0A0E7B2E009C00533CF
:10021200E3E01E0734F0C098C19A4ED0A3E7B2E0E3
:1002220071D0D2CFFFCFFFE0FA95F1F70895A4B3D2
:10023200AF70A4BBA99AA898F6DFAA9AF4DFA3B379
:10024200AA98F1DFAA9AEFDFAA98A7FDF5CF089541
:10025200A07FAB2BA5BBAA9AE6DFAA98E4DF08959C
:10026200AA93A998A4B3A76FA4BBB5B3BF70A88182
:10027200EFDFA881A295ECDFA99A0C94D401AA9A87
:10028200D2DFE3B3AA98CFDFE07F0895CCDFF7DFB8
:10029200AE2FF5DFA998E295EA2B0895AA93C7DF5E
:1002A200E881F0E0E558FD4FE081A981AE0FD8DF8B
:1002B2005980488022960895BADFA2E0D1DFB7DFE5
:1002C200ACE0CEDFB4DFA1E0CBDFE0E04E2E5E2E6D
:1002D2000895AA93EF93FF93A8816894AA3019F026
:1002E200E894571430F04394E0E0EA93A42DD6DF6B
:1002F2002EF053949CDFA89AA881B2DFFF91EF9170
:100302000C94D401BA93AA931A93A981BA81ED915C
:10031200A983BA831E2FE03019F0A12FDADFF5CFBF
:10032200188123960895AA27BB271197F1F70895FC
:10033200AA93A998A4B3A76FA4BBB5B3BF70A881B1
:1003420087DFA99A30C0AA93AA98A8987880E881F2
:10035200E058E0937D02E881E054E0937E02E3DF1F
:10036200A0E3E6DFE0DFA0E3E3DFDDDFA0E3E0DF41
:10037200DADFA0E2DDDFD7DFA8E272DFD4DFA4E0BC
:100382006FDFD1DFA5E86CDFCEDFA4B3AF70A4BB13
:10039200A99A7CDFE53011F0E0E005C048DFA6E075
:1003A2005FDF8ADFE1E021960895CCD19D015E8175
:1003B2001296E7D13097E1F0D9011496E2D18F017C
:1003C200309759F00230E0E01E0760F0F8013197F3
:1003D2008F01D9011496ED93FC93D90112968FD116
:1003E20031975083D901CDD1FF230AF088D105C0BE
:1003F200D901EFEFFFEFED93FC93ABD12796089570
:10040200BA93AA9326979ED110E0AC85BD85E0E011
:10041200F0E0ED93FC93EA89FB893196EA8BFB8B42
:100422003197E4912E2FE03009F409C1E12FE03039
:1004320031F4253211F411E001C067D1FFC0E1307F
:10044200A1F4253211F461D1F8C012E040E000E0DD
:100452002D3211F401E0F2C02B3211F44BE2EEC066
:10046200203211F440E2EAC002C0E23039F450E036
:1004720013E0203311F40068E1C003C0E33009F057
:10048200DDC0203310F02A3308F007C0AAE05A9FDB
:10049200502DE22FE0535E0FD1C0E22FE33639F444
:1004A2003BD1E889F989A481AA933CD1C6C0E3373C
:1004B20029F432D13DD1FBD01E2F07C0E03749F4D9
:1004C2002BD136D100D11E2F086002600F7730E0A9
:1004D20038C0E43611F0E93611F4046002C0E537A1
:1004E20031F4E4E5F0E0EE83FF8315E00CC0E8357B
:1004F20011F4086003C0E83709F09FC0EEE5F0E0B0
:10050200EE83FF8314E002FF15C006D1A889B989E2
:100512001496ED91FD91EA87FB87AB85AA2322F41D
:1005220027D1EA87FB874DE2403011F01F5F01C0FF
:100532000B7F07C0F1D0A889B989149622D1EA8726
:10054200FB8700FD10C0151770F407FF08C002FFFB
:1005520004C00B7F242F115001C020E301C020E210
:10056200D4D05150F0CF312F01FF16C0303099F066
:1005720003FF06C0EE81FF812591EE83FF8305C054
:10058200AE81BF812D91AE83BF83BFD0503009F0C1
:1005920051503150EBCF48C020E3EE81FF81F5D0BE
:1005A200E887F987EE81FF813296EE83FF83E88543
:1005B200F985AA85BB85AE17BF0750F02F5FA885C6
:1005C200B985EA85FB85EA1BFB0BEA87FB87EFCF40
:1005D2002A3328F003FF02C0295F01C0295D04FD10
:1005E20019C0213320F4A885B985119709F409C0EF
:1005F200531710F000FF01C011C020E207FF0AC02C
:1006020020E3006102FF06C00B7F4A938BD050307B
:1006120009F051507AD0503009F051503150A8852C
:10062200B985129708F0B8CF00FF07C0503029F003
:100632005150E0E2EA9376D0F9CF10E0ECCEAC85EF
:10064200BD85ED91FD9185D064960895FF92F82EB7
:10065200269778D0FE0184D046855785042E052A38
:1006620019F4EFEFFFEF1FC0DE0118967DD08D0168
:1006720048875987E0E0EA87EB87DE011C9674D051
:10068200ED91FD91FA93EA931A930A93E6EDF1E064
:10069200FA93EA93DE011C96B3DE9F01A885B98521
:1006A200E0E0EC93F90155D02C96FF900895BA93AF
:1006B200AA93A991B991EE27FF276D91662311F0B4
:1006C2003196FBCF0895BA93AA93AA27BB27E99143
:1006D200F9910590002011F01196FBCFFD010895CC
:1006E200FE01FA93EA93E4E7F0E0FA93EA930895BD
:1006F20043D04FD084E0AADF2896DE0103CEED91ED
:10070200FD913196FE93EE9308952A93AD85BE85B1
:10071200EF85F88909950895E889F9893497E88B76
:10072200F98B0895AD85BE85EF85F8890995089501
:10073200A889B9891496ED91FD91EE83FF83AE816C
:10074200BF8108955A934A933A932A931A930A932C
:1007520008955D814C813B812A8119810881089528
:100762000024EF0DF01D08950024AF0DB01D089573
:10077200F195E195F04008956F2F660F660B762F85
:100782000895ED91FC91119708950590F491E02D53
:1007920008957A936A93FA93EA930895109639F03A
:1007A200A89580ED97E00197F1F71197C9F70895A1
:00000001FF
